S01A000041544D2D382D5842454552434175746F33312E73726563E0
S113000012C02CC02BC02AC029C028C027C026C0BB
S113001025C024C023C022C021C020C01FC01EC0D0
S11300201DC01CC01BC011241FBECFE5D4E0DEBF21
S1130030CDBF10E0A0E6B0E0E4EDF1E002C0059031
S11300400D92A036B107D9F710E0A0E6B0E001C0E8
S11300501D92A136B107E1F70ED0BAC0D1CF97B146
S1130060907F97B997B1892B87B9369A3699FECF85
S113007085B190E0089598E10FB6F89491BD11BC54
S11300800FBE17BA8FEF88BB80E881BB14BA20E299
S113009025BB27B927EC26B99AB996E890BD10BCC0
S11300A093E399B982BB2EE088E190E00FB6F8940F
S11300B0A89581BD0FBE21BD99E05D9BFECF9CB983
S11300C05F9BFECF8CB1809360008A30B1F712BA87
S11300D001E012E0D3E0C4E00F2EF5E0FF2EF02D96
S11300E0A8955D9BFECF0CB95F9BFECF8CB180932E
S11300F060008B30B1F75D9BFECF80E090E0AFDF16
S11301008CB95F9BFECF8CB1809360008C3099F7E3
S1130110A8955D9BFECF1CB95F9BFECF8CB18093ED
S113012060008D30B1F75D9BFECF81E090E097DFFA
S11301308CB95F9BFECF8CB1809360008E3099F7B1
S1130140A8955D9BFECFDCB95F9BFECF8CB18093FD
S113015060008F30B1F75D9BFECF82E090E07FDFDF
S11301608CB95F9BFECF8CB180936000803199F78E
S1130170A8955D9BFECFCCB95F9BFECF8CB18093DD
S113018060008131B1F75D9BFECF83E090E067DFD3
S11301908CB95F9BFECF8CB180936000823199F75C
S11301A0A8955D9BFECFFCB85F9BFECF8CB180937E
S11301B060008331B1F75D9BFECF86B38CB95F9B42
S11301C0FECF8CB1809360008431A9F7A89588CFC5
S10701D0F894FFCFCD
S9030000FC
